{
	"_format": "hh-sol-artifact-1",
	"contractName": "YachtNFT",
	"sourceName": "contracts/YachtNFT.sol",
	"abi": [
		{
			"inputs": [],
			"stateMutability": "nonpayable",
			"type": "constructor"
		},
		{
			"anonymous": false,
			"inputs": [
				{
					"indexed": true,
					"internalType": "address",
					"name": "owner",
					"type": "address"
				},
				{
					"indexed": true,
					"internalType": "address",
					"name": "approved",
					"type": "address"
				},
				{
					"indexed": true,
					"internalType": "uint256",
					"name": "tokenId",
					"type": "uint256"
				}
			],
			"name": "Approval",
			"type": "event"
		},
		{
			"anonymous": false,
			"inputs": [
				{
					"indexed": true,
					"internalType": "address",
					"name": "owner",
					"type": "address"
				},
				{
					"indexed": true,
					"internalType": "address",
					"name": "operator",
					"type": "address"
				},
				{
					"indexed": false,
					"internalType": "bool",
					"name": "approved",
					"type": "bool"
				}
			],
			"name": "ApprovalForAll",
			"type": "event"
		},
		{
			"anonymous": false,
			"inputs": [
				{
					"indexed": false,
					"internalType": "address",
					"name": "sender",
					"type": "address"
				},
				{
					"indexed": false,
					"internalType": "uint256",
					"name": "tokenId",
					"type": "uint256"
				}
			],
			"name": "NewYachtNFTMinted",
			"type": "event"
		},
		{
			"anonymous": false,
			"inputs": [
				{
					"indexed": true,
					"internalType": "address",
					"name": "from",
					"type": "address"
				},
				{
					"indexed": true,
					"internalType": "address",
					"name": "to",
					"type": "address"
				},
				{
					"indexed": true,
					"internalType": "uint256",
					"name": "tokenId",
					"type": "uint256"
				}
			],
			"name": "Transfer",
			"type": "event"
		},
		{
			"inputs": [
				{
					"internalType": "address",
					"name": "to",
					"type": "address"
				},
				{
					"internalType": "uint256",
					"name": "tokenId",
					"type": "uint256"
				}
			],
			"name": "approve",
			"outputs": [],
			"stateMutability": "nonpayable",
			"type": "function"
		},
		{
			"inputs": [
				{
					"internalType": "address",
					"name": "owner",
					"type": "address"
				}
			],
			"name": "balanceOf",
			"outputs": [
				{
					"internalType": "uint256",
					"name": "",
					"type": "uint256"
				}
			],
			"stateMutability": "view",
			"type": "function"
		},
		{
			"inputs": [
				{
					"internalType": "uint256",
					"name": "tokenId",
					"type": "uint256"
				}
			],
			"name": "getApproved",
			"outputs": [
				{
					"internalType": "address",
					"name": "",
					"type": "address"
				}
			],
			"stateMutability": "view",
			"type": "function"
		},
		{
			"inputs": [
				{
					"internalType": "address",
					"name": "owner",
					"type": "address"
				},
				{
					"internalType": "address",
					"name": "operator",
					"type": "address"
				}
			],
			"name": "isApprovedForAll",
			"outputs": [
				{
					"internalType": "bool",
					"name": "",
					"type": "bool"
				}
			],
			"stateMutability": "view",
			"type": "function"
		},
		{
			"inputs": [],
			"name": "makeYahctNFT",
			"outputs": [],
			"stateMutability": "nonpayable",
			"type": "function"
		},
		{
			"inputs": [],
			"name": "name",
			"outputs": [
				{
					"internalType": "string",
					"name": "",
					"type": "string"
				}
			],
			"stateMutability": "view",
			"type": "function"
		},
		{
			"inputs": [
				{
					"internalType": "uint256",
					"name": "tokenId",
					"type": "uint256"
				}
			],
			"name": "ownerOf",
			"outputs": [
				{
					"internalType": "address",
					"name": "",
					"type": "address"
				}
			],
			"stateMutability": "view",
			"type": "function"
		},
		{
			"inputs": [
				{
					"internalType": "address",
					"name": "from",
					"type": "address"
				},
				{
					"internalType": "address",
					"name": "to",
					"type": "address"
				},
				{
					"internalType": "uint256",
					"name": "tokenId",
					"type": "uint256"
				}
			],
			"name": "safeTransferFrom",
			"outputs": [],
			"stateMutability": "nonpayable",
			"type": "function"
		},
		{
			"inputs": [
				{
					"internalType": "address",
					"name": "from",
					"type": "address"
				},
				{
					"internalType": "address",
					"name": "to",
					"type": "address"
				},
				{
					"internalType": "uint256",
					"name": "tokenId",
					"type": "uint256"
				},
				{
					"internalType": "bytes",
					"name": "_data",
					"type": "bytes"
				}
			],
			"name": "safeTransferFrom",
			"outputs": [],
			"stateMutability": "nonpayable",
			"type": "function"
		},
		{
			"inputs": [
				{
					"internalType": "address",
					"name": "operator",
					"type": "address"
				},
				{
					"internalType": "bool",
					"name": "approved",
					"type": "bool"
				}
			],
			"name": "setApprovalForAll",
			"outputs": [],
			"stateMutability": "nonpayable",
			"type": "function"
		},
		{
			"inputs": [
				{
					"internalType": "bytes4",
					"name": "interfaceId",
					"type": "bytes4"
				}
			],
			"name": "supportsInterface",
			"outputs": [
				{
					"internalType": "bool",
					"name": "",
					"type": "bool"
				}
			],
			"stateMutability": "view",
			"type": "function"
		},
		{
			"inputs": [],
			"name": "symbol",
			"outputs": [
				{
					"internalType": "string",
					"name": "",
					"type": "string"
				}
			],
			"stateMutability": "view",
			"type": "function"
		},
		{
			"inputs": [
				{
					"internalType": "uint256",
					"name": "tokenId",
					"type": "uint256"
				}
			],
			"name": "tokenURI",
			"outputs": [
				{
					"internalType": "string",
					"name": "",
					"type": "string"
				}
			],
			"stateMutability": "view",
			"type": "function"
		},
		{
			"inputs": [
				{
					"internalType": "address",
					"name": "from",
					"type": "address"
				},
				{
					"internalType": "address",
					"name": "to",
					"type": "address"
				},
				{
					"internalType": "uint256",
					"name": "tokenId",
					"type": "uint256"
				}
			],
			"name": "transferFrom",
			"outputs": [],
			"stateMutability": "nonpayable",
			"type": "function"
		}
	],
	"bytecode": "0x60806040523480156200001157600080fd5b506040518060400160405280600881526020017f79616368744e46540000000000000000000000000000000000000000000000008152506040518060400160405280600581526020017f5941434854000000000000000000000000000000000000000000000000000000815250816000908051906020019062000096929190620001cf565b508060019080519060200190620000af929190620001cf565b505050620000fd6040518060400160405280601e81526020017f54686973206973206d79204e465420636f6e74726163742e20576f61682100008152506200010360201b62000b8c1760201c565b620003ac565b620001a3816040516024016200011a9190620002c0565b6040516020818303038152906040527f41304fac000000000000000000000000000000000000000000000000000000007bffffffffffffffffffffffffffffffffffffffffffffffffffffffff19166020820180517bffffffffffffffffffffffffffffffffffffffffffffffffffffffff8381831617835250505050620001a660201b60201c565b50565b60008151905060006a636f6e736f6c652e6c6f679050602083016000808483855afa5050505050565b828054620001dd9062000336565b90600052602060002090601f0160209004810192826200020157600085556200024d565b82601f106200021c57805160ff19168380011785556200024d565b828001600101855582156200024d579182015b828111156200024c5782518255916020019190600101906200022f565b5b5090506200025c919062000260565b5090565b5b808211156200027b57600081600090555060010162000261565b5090565b60006200028c82620002e4565b620002988185620002ef565b9350620002aa81856020860162000300565b620002b5816200039b565b840191505092915050565b60006020820190508181036000830152620002dc81846200027f565b905092915050565b600081519050919050565b600082825260208201905092915050565b60005b838110156200032057808201518184015260208101905062000303565b8381111562000330576000848401525b50505050565b600060028204905060018216806200034f57607f821691505b602082108114156200036657620003656200036c565b5b50919050565b7f4e487b7100000000000000000000000000000000000000000000000000000000600052602260045260246000fd5b6000601f19601f8301169050919050565b612d7580620003bc6000396000f3fe608060405234801561001057600080fd5b50600436106100ea5760003560e01c80636352211e1161008c578063a22cb46511610066578063a22cb46514610249578063b88d4fde14610265578063c87b56dd14610281578063e985e9c5146102b1576100ea565b80636352211e146101cb57806370a08231146101fb57806395d89b411461022b576100ea565b8063095ea7b3116100c8578063095ea7b31461016d57806323b872dd1461018957806342842e0e146101a557806349c6d59b146101c1576100ea565b806301ffc9a7146100ef57806306fdde031461011f578063081812fc1461013d575b600080fd5b61010960048036038101906101049190611dc7565b6102e1565b60405161011691906121f6565b60405180910390f35b6101276103c3565b6040516101349190612211565b60405180910390f35b61015760048036038101906101529190611e19565b610455565b6040516101649190612166565b60405180910390f35b61018760048036038101906101829190611d8b565b6104da565b005b6101a3600480360381019061019e9190611c85565b6105f2565b005b6101bf60048036038101906101ba9190611c85565b610652565b005b6101c9610672565b005b6101e560048036038101906101e09190611e19565b610732565b6040516101f29190612166565b60405180910390f35b61021560048036038101906102109190611c20565b6107e4565b6040516102229190612471565b60405180910390f35b61023361089c565b6040516102409190612211565b60405180910390f35b610263600480360381019061025e9190611d4f565b61092e565b005b61027f600480360381019061027a9190611cd4565b610944565b005b61029b60048036038101906102969190611e19565b6109a6565b6040516102a89190612211565b60405180910390f35b6102cb60048036038101906102c69190611c49565b610af8565b6040516102d891906121f6565b60405180910390f35b60007f80ac58cd000000000000000000000000000000000000000000000000000000007bffffffffffffffffffffffffffffffffffffffffffffffffffffffff1916827bffffffffffffffffffffffffffffffffffffffffffffffffffffffff191614806103ac57507f5b5e139f000000000000000000000000000000000000000000000000000000007bffffffffffffffffffffffffffffffffffffffffffffffffffffffff1916827bffffffffffffffffffffffffffffffffffffffffffffffffffffffff1916145b806103bc57506103bb82610c25565b5b9050919050565b6060600080546103d290612696565b80601f01602080910402602001604051908101604052809291908181526020018280546103fe90612696565b801561044b5780601f106104205761010080835404028352916020019161044b565b820191906000526020600020905b81548152906001019060200180831161042e57829003601f168201915b5050505050905090565b600061046082610c8f565b61049f576040517f08c379a0000000000000000000000000000000000000000000000000000000008152600401610496906123f1565b60405180910390fd5b6004600083815260200190815260200160002060009054906101000a900473ffffffffffffffffffffffffffffffffffffffff169050919050565b60006104e582610732565b90508073ffffffffffffffffffffffffffffffffffffffff168373ffffffffffffffffffffffffffffffffffffffff161415610556576040517f08c379a000000000000000000000000000000000000000000000000000000000815260040161054d90612431565b60405180910390fd5b8073ffffffffffffffffffffffffffffffffffffffff16610575610cfb565b73ffffffffffffffffffffffffffffffffffffffff1614806105a457506105a38161059e610cfb565b610af8565b5b6105e3576040517f08c379a00000000000000000000000000000000000000000000000000000000081526004016105da90612331565b60405180910390fd5b6105ed8383610d03565b505050565b6106036105fd610cfb565b82610dbc565b610642576040517f08c379a000000000000000000000000000000000000000000000000000000000815260040161063990612451565b60405180910390fd5b61064d838383610e9a565b505050565b61066d83838360405180602001604052806000815250610944565b505050565b600061067e6007611101565b905061068a338261110f565b6106c9816040518060400160405280601d81526020017f68747470733a2f2f6a736f6e6b65657065722e636f6d2f622f4e30384900000081525061112d565b6106ec604051806060016040528060258152602001612d1b6025913982336111a1565b6106f66007611240565b7f3dc3685a8397cc322b1d047a32b3365a1eed53f18ea951f6c270c4c65f47a22c33826040516107279291906121cd565b60405180910390a150565b6000806002600084815260200190815260200160002060009054906101000a900473ffffffffffffffffffffffffffffffffffffffff169050600073ffffffffffffffffffffffffffffffffffffffff168173ffffffffffffffffffffffffffffffffffffffff1614156107db576040517f08c379a00000000000000000000000000000000000000000000000000000000081526004016107d290612371565b60405180910390fd5b80915050919050565b60008073ffffffffffffffffffffffffffffffffffffffff168273ffffffffffffffffffffffffffffffffffffffff161415610855576040517f08c379a000000000000000000000000000000000000000000000000000000000815260040161084c90612351565b60405180910390fd5b600360008373ffffffffffffffffffffffffffffffffffffffff1673ffffffffffffffffffffffffffffffffffffffff168152602001908152602001600020549050919050565b6060600180546108ab90612696565b80601f01602080910402602001604051908101604052809291908181526020018280546108d790612696565b80156109245780601f106108f957610100808354040283529160200191610924565b820191906000526020600020905b81548152906001019060200180831161090757829003601f168201915b5050505050905090565b610940610939610cfb565b8383611256565b5050565b61095561094f610cfb565b83610dbc565b610994576040517f08c379a000000000000000000000000000000000000000000000000000000000815260040161098b90612451565b60405180910390fd5b6109a0848484846113c3565b50505050565b60606109b182610c8f565b6109f0576040517f08c379a00000000000000000000000000000000000000000000000000000000081526004016109e7906123d1565b60405180910390fd5b6000600660008481526020019081526020016000208054610a1090612696565b80601f0160208091040260200160405190810160405280929190818152602001828054610a3c90612696565b8015610a895780601f10610a5e57610100808354040283529160200191610a89565b820191906000526020600020905b815481529060010190602001808311610a6c57829003601f168201915b505050505090506000610a9a61141f565b9050600081511415610ab0578192505050610af3565b600082511115610ae5578082604051602001610acd929190612142565b60405160208183030381529060405292505050610af3565b610aee84611436565b925050505b919050565b6000600560008473ffffffffffffffffffffffffffffffffffffffff1673ffffffffffffffffffffffffffffffffffffffff16815260200190815260200160002060008373ffffffffffffffffffffffffffffffffffffffff1673ffffffffffffffffffffffffffffffffffffffff16815260200190815260200160002060009054906101000a900460ff16905092915050565b610c2281604051602401610ba09190612211565b6040516020818303038152906040527f41304fac000000000000000000000000000000000000000000000000000000007bffffffffffffffffffffffffffffffffffffffffffffffffffffffff19166020820180517bffffffffffffffffffffffffffffffffffffffffffffffffffffffff83818316178352505050506114dd565b50565b60007f01ffc9a7000000000000000000000000000000000000000000000000000000007bffffffffffffffffffffffffffffffffffffffffffffffffffffffff1916827bffffffffffffffffffffffffffffffffffffffffffffffffffffffff1916149050919050565b60008073ffffffffffffffffffffffffffffffffffffffff166002600084815260200190815260200160002060009054906101000a900473ffffffffffffffffffffffffffffffffffffffff1673ffffffffffffffffffffffffffffffffffffffff1614159050919050565b600033905090565b816004600083815260200190815260200160002060006101000a81548173ffffffffffffffffffffffffffffffffffffffff021916908373ffffffffffffffffffffffffffffffffffffffff160217905550808273ffffffffffffffffffffffffffffffffffffffff16610d7683610732565b73ffffffffffffffffffffffffffffffffffffffff167f8c5be1e5ebec7d5bd14f71427d1e84f3dd0314c0f7b2291e5b200ac8c7c3b92560405160405180910390a45050565b6000610dc782610c8f565b610e06576040517f08c379a0000000000000000000000000000000000000000000000000000000008152600401610dfd90612311565b60405180910390fd5b6000610e1183610732565b90508073ffffffffffffffffffffffffffffffffffffffff168473ffffffffffffffffffffffffffffffffffffffff161480610e8057508373ffffffffffffffffffffffffffffffffffffffff16610e6884610455565b73ffffffffffffffffffffffffffffffffffffffff16145b80610e915750610e908185610af8565b5b91505092915050565b8273ffffffffffffffffffffffffffffffffffffffff16610eba82610732565b73ffffffffffffffffffffffffffffffffffffffff1614610f10576040517f08c379a0000000000000000000000000000000000000000000000000000000008152600401610f0790612291565b60405180910390fd5b600073ffffffffffffffffffffffffffffffffffffffff168273ffffffffffffffffffffffffffffffffffffffff161415610f80576040517f08c379a0000000000000000000000000000000000000000000000000000000008152600401610f77906122d1565b60405180910390fd5b610f8b838383611506565b610f96600082610d03565b6001600360008573ffffffffffffffffffffffffffffffffffffffff1673ffffffffffffffffffffffffffffffffffffffff1681526020019081526020016000206000828254610fe691906125ac565b925050819055506001600360008473ffffffffffffffffffffffffffffffffffffffff1673ffffffffffffffffffffffffffffffffffffffff168152602001908152602001600020600082825461103d9190612525565b92505081905550816002600083815260200190815260200160002060006101000a81548173ffffffffffffffffffffffffffffffffffffffff021916908373ffffffffffffffffffffffffffffffffffffffff160217905550808273ffffffffffffffffffffffffffffffffffffffff168473ffffffffffffffffffffffffffffffffffffffff167fddf252ad1be2c89b69c2b068fc378daa952ba7f163c4a11628f55a4df523b3ef60405160405180910390a46110fc83838361150b565b505050565b600081600001549050919050565b611129828260405180602001604052806000815250611510565b5050565b61113682610c8f565b611175576040517f08c379a000000000000000000000000000000000000000000000000000000000815260040161116c90612391565b60405180910390fd5b8060066000848152602001908152602001600020908051906020019061119c929190611aac565b505050565b61123b8383836040516024016111b993929190612233565b6040516020818303038152906040527fe3849f79000000000000000000000000000000000000000000000000000000007bffffffffffffffffffffffffffffffffffffffffffffffffffffffff19166020820180517bffffffffffffffffffffffffffffffffffffffffffffffffffffffff83818316178352505050506114dd565b505050565b6001816000016000828254019250508190555050565b8173ffffffffffffffffffffffffffffffffffffffff168373ffffffffffffffffffffffffffffffffffffffff1614156112c5576040517f08c379a00000000000000000000000000000000000000000000000000000000081526004016112bc906122f1565b60405180910390fd5b80600560008573ffffffffffffffffffffffffffffffffffffffff1673ffffffffffffffffffffffffffffffffffffffff16815260200190815260200160002060008473ffffffffffffffffffffffffffffffffffffffff1673ffffffffffffffffffffffffffffffffffffffff16815260200190815260200160002060006101000a81548160ff0219169083151502179055508173ffffffffffffffffffffffffffffffffffffffff168373ffffffffffffffffffffffffffffffffffffffff167f17307eab39ab6107e8899845ad3d59bd9653f200f220920489ca2b5937696c31836040516113b691906121f6565b60405180910390a3505050565b6113ce848484610e9a565b6113da8484848461156b565b611419576040517f08c379a000000000000000000000000000000000000000000000000000000000815260040161141090612271565b60405180910390fd5b50505050565b606060405180602001604052806000815250905090565b606061144182610c8f565b611480576040517f08c379a000000000000000000000000000000000000000000000000000000000815260040161147790612411565b60405180910390fd5b600061148a61141f565b905060008151116114aa57604051806020016040528060008152506114d5565b806114b484611702565b6040516020016114c5929190612142565b6040516020818303038152906040525b915050919050565b60008151905060006a636f6e736f6c652e6c6f679050602083016000808483855afa5050505050565b505050565b505050565b61151a83836118af565b611527600084848461156b565b611566576040517f08c379a000000000000000000000000000000000000000000000000000000000815260040161155d90612271565b60405180910390fd5b505050565b600061158c8473ffffffffffffffffffffffffffffffffffffffff16611a89565b156116f5578373ffffffffffffffffffffffffffffffffffffffff1663150b7a026115b5610cfb565b8786866040518563ffffffff1660e01b81526004016115d79493929190612181565b602060405180830381600087803b1580156115f157600080fd5b505af192505050801561162257506040513d601f19601f8201168201806040525081019061161f9190611df0565b60015b6116a5573d8060008114611652576040519150601f19603f3d011682016040523d82523d6000602084013e611657565b606091505b5060008151141561169d576040517f08c379a000000000000000000000000000000000000000000000000000000000815260040161169490612271565b60405180910390fd5b805181602001fd5b63150b7a0260e01b7bffffffffffffffffffffffffffffffffffffffffffffffffffffffff1916817bffffffffffffffffffffffffffffffffffffffffffffffffffffffff1916149150506116fa565b600190505b949350505050565b6060600082141561174a576040518060400160405280600181526020017f300000000000000000000000000000000000000000000000000000000000000081525090506118aa565b600082905060005b6000821461177c578080611765906126f9565b915050600a82611775919061257b565b9150611752565b60008167ffffffffffffffff8111156117be577f4e487b7100000000000000000000000000000000000000000000000000000000600052604160045260246000fd5b6040519080825280601f01601f1916602001820160405280156117f05781602001600182028036833780820191505090505b5090505b600085146118a35760018261180991906125ac565b9150600a856118189190612742565b60306118249190612525565b60f81b818381518110611860577f4e487b7100000000000000000000000000000000000000000000000000000000600052603260045260246000fd5b60200101907effffffffffffffffffffffffffffffffffffffffffffffffffffffffffffff1916908160001a905350600a8561189c919061257b565b94506117f4565b8093505050505b919050565b600073ffffffffffffffffffffffffffffffffffffffff168273ffffffffffffffffffffffffffffffffffffffff16141561191f576040517f08c379a0000000000000000000000000000000000000000000000000000000008152600401611916906123b1565b60405180910390fd5b61192881610c8f565b15611968576040517f08c379a000000000000000000000000000000000000000000000000000000000815260040161195f906122b1565b60405180910390fd5b61197460008383611506565b6001600360008473ffffffffffffffffffffffffffffffffffffffff1673ffffffffffffffffffffffffffffffffffffffff16815260200190815260200160002060008282546119c49190612525565b92505081905550816002600083815260200190815260200160002060006101000a81548173ffffffffffffffffffffffffffffffffffffffff021916908373ffffffffffffffffffffffffffffffffffffffff160217905550808273ffffffffffffffffffffffffffffffffffffffff16600073ffffffffffffffffffffffffffffffffffffffff167fddf252ad1be2c89b69c2b068fc378daa952ba7f163c4a11628f55a4df523b3ef60405160405180910390a4611a856000838361150b565b5050565b6000808273ffffffffffffffffffffffffffffffffffffffff163b119050919050565b828054611ab890612696565b90600052602060002090601f016020900481019282611ada5760008555611b21565b82601f10611af357805160ff1916838001178555611b21565b82800160010185558215611b21579182015b82811115611b20578251825591602001919060010190611b05565b5b509050611b2e9190611b32565b5090565b5b80821115611b4b576000816000905550600101611b33565b5090565b6000611b62611b5d846124b1565b61248c565b905082815260208101848484011115611b7a57600080fd5b611b85848285612654565b509392505050565b600081359050611b9c81612cbe565b92915050565b600081359050611bb181612cd5565b92915050565b600081359050611bc681612cec565b92915050565b600081519050611bdb81612cec565b92915050565b600082601f830112611bf257600080fd5b8135611c02848260208601611b4f565b91505092915050565b600081359050611c1a81612d03565b92915050565b600060208284031215611c3257600080fd5b6000611c4084828501611b8d565b91505092915050565b60008060408385031215611c5c57600080fd5b6000611c6a85828601611b8d565b9250506020611c7b85828601611b8d565b9150509250929050565b600080600060608486031215611c9a57600080fd5b6000611ca886828701611b8d565b9350506020611cb986828701611b8d565b9250506040611cca86828701611c0b565b9150509250925092565b60008060008060808587031215611cea57600080fd5b6000611cf887828801611b8d565b9450506020611d0987828801611b8d565b9350506040611d1a87828801611c0b565b925050606085013567ffffffffffffffff811115611d3757600080fd5b611d4387828801611be1565b91505092959194509250565b60008060408385031215611d6257600080fd5b6000611d7085828601611b8d565b9250506020611d8185828601611ba2565b9150509250929050565b60008060408385031215611d9e57600080fd5b6000611dac85828601611b8d565b9250506020611dbd85828601611c0b565b9150509250929050565b600060208284031215611dd957600080fd5b6000611de784828501611bb7565b91505092915050565b600060208284031215611e0257600080fd5b6000611e1084828501611bcc565b91505092915050565b600060208284031215611e2b57600080fd5b6000611e3984828501611c0b565b91505092915050565b611e4b816125e0565b82525050565b611e5a816125f2565b82525050565b6000611e6b826124e2565b611e7581856124f8565b9350611e85818560208601612663565b611e8e8161282f565b840191505092915050565b6000611ea4826124ed565b611eae8185612509565b9350611ebe818560208601612663565b611ec78161282f565b840191505092915050565b6000611edd826124ed565b611ee7818561251a565b9350611ef7818560208601612663565b80840191505092915050565b6000611f10603283612509565b9150611f1b82612840565b604082019050919050565b6000611f33602583612509565b9150611f3e8261288f565b604082019050919050565b6000611f56601c83612509565b9150611f61826128de565b602082019050919050565b6000611f79602483612509565b9150611f8482612907565b604082019050919050565b6000611f9c601983612509565b9150611fa782612956565b602082019050919050565b6000611fbf602c83612509565b9150611fca8261297f565b604082019050919050565b6000611fe2603883612509565b9150611fed826129ce565b604082019050919050565b6000612005602a83612509565b915061201082612a1d565b604082019050919050565b6000612028602983612509565b915061203382612a6c565b604082019050919050565b600061204b602e83612509565b915061205682612abb565b604082019050919050565b600061206e602083612509565b915061207982612b0a565b602082019050919050565b6000612091603183612509565b915061209c82612b33565b604082019050919050565b60006120b4602c83612509565b91506120bf82612b82565b604082019050919050565b60006120d7602f83612509565b91506120e282612bd1565b604082019050919050565b60006120fa602183612509565b915061210582612c20565b604082019050919050565b600061211d603183612509565b915061212882612c6f565b604082019050919050565b61213c8161264a565b82525050565b600061214e8285611ed2565b915061215a8284611ed2565b91508190509392505050565b600060208201905061217b6000830184611e42565b92915050565b60006080820190506121966000830187611e42565b6121a36020830186611e42565b6121b06040830185612133565b81810360608301526121c28184611e60565b905095945050505050565b60006040820190506121e26000830185611e42565b6121ef6020830184612133565b9392505050565b600060208201905061220b6000830184611e51565b92915050565b6000602082019050818103600083015261222b8184611e99565b905092915050565b6000606082019050818103600083015261224d8186611e99565b905061225c6020830185612133565b6122696040830184611e42565b949350505050565b6000602082019050818103600083015261228a81611f03565b9050919050565b600060208201905081810360008301526122aa81611f26565b9050919050565b600060208201905081810360008301526122ca81611f49565b9050919050565b600060208201905081810360008301526122ea81611f6c565b9050919050565b6000602082019050818103600083015261230a81611f8f565b9050919050565b6000602082019050818103600083015261232a81611fb2565b9050919050565b6000602082019050818103600083015261234a81611fd5565b9050919050565b6000602082019050818103600083015261236a81611ff8565b9050919050565b6000602082019050818103600083015261238a8161201b565b9050919050565b600060208201905081810360008301526123aa8161203e565b9050919050565b600060208201905081810360008301526123ca81612061565b9050919050565b600060208201905081810360008301526123ea81612084565b9050919050565b6000602082019050818103600083015261240a816120a7565b9050919050565b6000602082019050818103600083015261242a816120ca565b9050919050565b6000602082019050818103600083015261244a816120ed565b9050919050565b6000602082019050818103600083015261246a81612110565b9050919050565b60006020820190506124866000830184612133565b92915050565b60006124966124a7565b90506124a282826126c8565b919050565b6000604051905090565b600067ffffffffffffffff8211156124cc576124cb612800565b5b6124d58261282f565b9050602081019050919050565b600081519050919050565b600081519050919050565b600082825260208201905092915050565b600082825260208201905092915050565b600081905092915050565b60006125308261264a565b915061253b8361264a565b9250827fffffffffffffffffffffffffffffffffffffffffffffffffffffffffffffffff038211156125705761256f612773565b5b828201905092915050565b60006125868261264a565b91506125918361264a565b9250826125a1576125a06127a2565b5b828204905092915050565b60006125b78261264a565b91506125c28361264a565b9250828210156125d5576125d4612773565b5b828203905092915050565b60006125eb8261262a565b9050919050565b60008115159050919050565b60007fffffffff0000000000000000000000000000000000000000000000000000000082169050919050565b600073ffffffffffffffffffffffffffffffffffffffff82169050919050565b6000819050919050565b82818337600083830152505050565b60005b83811015612681578082015181840152602081019050612666565b83811115612690576000848401525b50505050565b600060028204905060018216806126ae57607f821691505b602082108114156126c2576126c16127d1565b5b50919050565b6126d18261282f565b810181811067ffffffffffffffff821117156126f0576126ef612800565b5b80604052505050565b60006127048261264a565b91507fffffffffffffffffffffffffffffffffffffffffffffffffffffffffffffffff82141561273757612736612773565b5b600182019050919050565b600061274d8261264a565b91506127588361264a565b925082612768576127676127a2565b5b828206905092915050565b7f4e487b7100000000000000000000000000000000000000000000000000000000600052601160045260246000fd5b7f4e487b7100000000000000000000000000000000000000000000000000000000600052601260045260246000fd5b7f4e487b7100000000000000000000000000000000000000000000000000000000600052602260045260246000fd5b7f4e487b7100000000000000000000000000000000000000000000000000000000600052604160045260246000fd5b6000601f19601f8301169050919050565b7f4552433732313a207472616e7366657220746f206e6f6e20455243373231526560008201527f63656976657220696d706c656d656e7465720000000000000000000000000000602082015250565b7f4552433732313a207472616e736665722066726f6d20696e636f72726563742060008201527f6f776e6572000000000000000000000000000000000000000000000000000000602082015250565b7f4552433732313a20746f6b656e20616c7265616479206d696e74656400000000600082015250565b7f4552433732313a207472616e7366657220746f20746865207a65726f2061646460008201527f7265737300000000000000000000000000000000000000000000000000000000602082015250565b7f4552433732313a20617070726f766520746f2063616c6c657200000000000000600082015250565b7f4552433732313a206f70657261746f7220717565727920666f72206e6f6e657860008201527f697374656e7420746f6b656e0000000000000000000000000000000000000000602082015250565b7f4552433732313a20617070726f76652063616c6c6572206973206e6f74206f7760008201527f6e6572206e6f7220617070726f76656420666f7220616c6c0000000000000000602082015250565b7f4552433732313a2062616c616e636520717565727920666f7220746865207a6560008201527f726f206164647265737300000000000000000000000000000000000000000000602082015250565b7f4552433732313a206f776e657220717565727920666f72206e6f6e657869737460008201527f656e7420746f6b656e0000000000000000000000000000000000000000000000602082015250565b7f45524337323155524953746f726167653a2055524920736574206f66206e6f6e60008201527f6578697374656e7420746f6b656e000000000000000000000000000000000000602082015250565b7f4552433732313a206d696e7420746f20746865207a65726f2061646472657373600082015250565b7f45524337323155524953746f726167653a2055524920717565727920666f722060008201527f6e6f6e6578697374656e7420746f6b656e000000000000000000000000000000602082015250565b7f4552433732313a20617070726f76656420717565727920666f72206e6f6e657860008201527f697374656e7420746f6b656e0000000000000000000000000000000000000000602082015250565b7f4552433732314d657461646174613a2055524920717565727920666f72206e6f60008201527f6e6578697374656e7420746f6b656e0000000000000000000000000000000000602082015250565b7f4552433732313a20617070726f76616c20746f2063757272656e74206f776e6560008201527f7200000000000000000000000000000000000000000000000000000000000000602082015250565b7f4552433732313a207472616e736665722063616c6c6572206973206e6f74206f60008201527f776e6572206e6f7220617070726f766564000000000000000000000000000000602082015250565b612cc7816125e0565b8114612cd257600080fd5b50565b612cde816125f2565b8114612ce957600080fd5b50565b612cf5816125fe565b8114612d0057600080fd5b50565b612d0c8161264a565b8114612d1757600080fd5b5056fe416e204e465420772f20494420257320686173206265656e206d696e74656420746f202573a2646970667358221220cadac6ac7702bb833157079a517b5b86ead2c63f1520205d0b76108d2b84ce0464736f6c63430008010033",
	"linkReferences": {},
	"deployedLinkReferences": {}
}